{
  "_format": "hh-sol-artifact-1",
  "contractName": "Marketplace",
  "sourceName": "contracts/Marketplace.sol",
  "abi": [
    {
      "inputs": [
        {
          "internalType": "uint256",
          "name": "_feePercent",
          "type": "uint256"
        }
      ],
      "stateMutability": "nonpayable",
      "type": "constructor"
    },
    {
      "anonymous": false,
      "inputs": [
        {
          "indexed": false,
          "internalType": "uint256",
          "name": "itemId",
          "type": "uint256"
        },
        {
          "indexed": true,
          "internalType": "address",
          "name": "nft",
          "type": "address"
        },
        {
          "indexed": false,
          "internalType": "uint256",
          "name": "tokenId",
          "type": "uint256"
        },
        {
          "indexed": false,
          "internalType": "uint256",
          "name": "price",
          "type": "uint256"
        },
        {
          "indexed": true,
          "internalType": "address",
          "name": "seller",
          "type": "address"
        },
        {
          "indexed": true,
          "internalType": "address",
          "name": "buyer",
          "type": "address"
        }
      ],
      "name": "Bought",
      "type": "event"
    },
    {
      "anonymous": false,
      "inputs": [
        {
          "indexed": false,
          "internalType": "uint256",
          "name": "itemId",
          "type": "uint256"
        },
        {
          "indexed": true,
          "internalType": "address",
          "name": "nft",
          "type": "address"
        },
        {
          "indexed": false,
          "internalType": "uint256",
          "name": "tokenId",
          "type": "uint256"
        },
        {
          "indexed": false,
          "internalType": "uint256",
          "name": "price",
          "type": "uint256"
        },
        {
          "indexed": true,
          "internalType": "address",
          "name": "seller",
          "type": "address"
        }
      ],
      "name": "Offered",
      "type": "event"
    },
    {
      "inputs": [
        {
          "internalType": "uint256",
          "name": "_itemId",
          "type": "uint256"
        }
      ],
      "name": "buyItem",
      "outputs": [],
      "stateMutability": "payable",
      "type": "function"
    },
    {
      "inputs": [],
      "name": "feeAccount",
      "outputs": [
        {
          "internalType": "address payable",
          "name": "",
          "type": "address"
        }
      ],
      "stateMutability": "view",
      "type": "function"
    },
    {
      "inputs": [],
      "name": "feePercent",
      "outputs": [
        {
          "internalType": "uint256",
          "name": "",
          "type": "uint256"
        }
      ],
      "stateMutability": "view",
      "type": "function"
    },
    {
      "inputs": [
        {
          "internalType": "uint256",
          "name": "_itemId",
          "type": "uint256"
        }
      ],
      "name": "getFinalPrice",
      "outputs": [
        {
          "internalType": "uint256",
          "name": "",
          "type": "uint256"
        }
      ],
      "stateMutability": "view",
      "type": "function"
    },
    {
      "inputs": [],
      "name": "itemCount",
      "outputs": [
        {
          "internalType": "uint256",
          "name": "",
          "type": "uint256"
        }
      ],
      "stateMutability": "view",
      "type": "function"
    },
    {
      "inputs": [
        {
          "internalType": "uint256",
          "name": "",
          "type": "uint256"
        }
      ],
      "name": "items",
      "outputs": [
        {
          "internalType": "uint256",
          "name": "itemId",
          "type": "uint256"
        },
        {
          "internalType": "contract IERC721",
          "name": "nft",
          "type": "address"
        },
        {
          "internalType": "uint256",
          "name": "tokenId",
          "type": "uint256"
        },
        {
          "internalType": "uint256",
          "name": "price",
          "type": "uint256"
        },
        {
          "internalType": "uint256",
          "name": "listingPrice",
          "type": "uint256"
        },
        {
          "internalType": "address payable",
          "name": "seller",
          "type": "address"
        },
        {
          "internalType": "bool",
          "name": "isSold",
          "type": "bool"
        }
      ],
      "stateMutability": "view",
      "type": "function"
    },
    {
      "inputs": [
        {
          "internalType": "uint256",
          "name": "_itemId",
          "type": "uint256"
        },
        {
          "internalType": "uint256",
          "name": "_price",
          "type": "uint256"
        }
      ],
      "name": "listItem",
      "outputs": [],
      "stateMutability": "nonpayable",
      "type": "function"
    },
    {
      "inputs": [
        {
          "internalType": "contract IERC721",
          "name": "_nft",
          "type": "address"
        },
        {
          "internalType": "uint256",
          "name": "_tokenId",
          "type": "uint256"
        },
        {
          "internalType": "uint256",
          "name": "_price",
          "type": "uint256"
        }
      ],
      "name": "makeItem",
      "outputs": [],
      "stateMutability": "nonpayable",
      "type": "function"
    }
  ],
  "bytecode": "0x60a06040523480156200001157600080fd5b5060405162001876380380620018768339818101604052810190620000379190620000cf565b600160008190555033600160006101000a81548173ffffffffffffffffffffffffffffffffffffffff021916908373ffffffffffffffffffffffffffffffffffffffff16021790555080608081815250505062000101565b600080fd5b6000819050919050565b620000a98162000094565b8114620000b557600080fd5b50565b600081519050620000c9816200009e565b92915050565b600060208284031215620000e857620000e76200008f565b5b6000620000f884828501620000b8565b91505092915050565b60805161175262000124600039600081816101f5015261028001526117526000f3fe60806040526004361061007b5760003560e01c8063883efa671161004e578063883efa671461013e578063bfb231d214610167578063e7fb74c7146101aa578063fa00afc7146101c65761007b565b80634b5549541461008057806365e17c9d146100bd5780636bfb0d01146100e85780637fd6f15c14610113575b600080fd5b34801561008c57600080fd5b506100a760048036038101906100a29190610ee0565b6101ef565b6040516100b49190610f1c565b60405180910390f35b3480156100c957600080fd5b506100d2610252565b6040516100df9190610f78565b60405180910390f35b3480156100f457600080fd5b506100fd610278565b60405161010a9190610f1c565b60405180910390f35b34801561011f57600080fd5b5061012861027e565b6040516101359190610f1c565b60405180910390f35b34801561014a57600080fd5b5061016560048036038101906101609190610f93565b6102a2565b005b34801561017357600080fd5b5061018e60048036038101906101899190610ee0565b610694565b6040516101a1979695949392919061104d565b60405180910390f35b6101c460048036038101906101bf9190610ee0565b610723565b005b3480156101d257600080fd5b506101ed60048036038101906101e8919061110c565b610bbd565b005b600060647f00000000000000000000000000000000000000000000000000000000000000006064610220919061118e565b600360008581526020019081526020016000206004015461024191906111e4565b61024b919061126d565b9050919050565b600160009054906101000a900473ffffffffffffffffffffffffffffffffffffffff1681565b60025481565b7f000000000000000000000000000000000000000000000000000000000000000081565b600260005414156102e8576040517f08c379a00000000000000000000000000000000000000000000000000000000081526004016102df906112fb565b60405180910390fd5b60026000819055503373ffffffffffffffffffffffffffffffffffffffff166003600084815260200190815260200160002060010160009054906101000a900473ffffffffffffffffffffffffffffffffffffffff1673ffffffffffffffffffffffffffffffffffffffff16636352211e60036000868152602001908152602001600020600201546040518263ffffffff1660e01b815260040161038c9190610f1c565b60206040518083038186803b1580156103a457600080fd5b505afa1580156103b8573d6000803e3d6000fd5b505050506040513d601f19601f820116820180604052508101906103dc9190611347565b73ffffffffffffffffffffffffffffffffffffffff1614610432576040517f08c379a0000000000000000000000000000000000000000000000000000000008152600401610429906113e6565b60405180910390fd5b600115156003600084815260200190815260200160002060050160149054906101000a900460ff1615151461049c576040517f08c379a000000000000000000000000000000000000000000000000000000000815260040161049390611452565b60405180910390fd5b600081116104df576040517f08c379a00000000000000000000000000000000000000000000000000000000081526004016104d6906114be565b60405180910390fd5b60006003600084815260200190815260200160002090508181600401819055508060010160009054906101000a900473ffffffffffffffffffffffffffffffffffffffff1673ffffffffffffffffffffffffffffffffffffffff166323b872dd333084600201546040518463ffffffff1660e01b8152600401610564939291906114ed565b600060405180830381600087803b15801561057e57600080fd5b505af1158015610592573d6000803e3d6000fd5b50505050338160050160006101000a81548173ffffffffffffffffffffffffffffffffffffffff021916908373ffffffffffffffffffffffffffffffffffffffff16021790555060008160050160146101000a81548160ff0219169083151502179055503373ffffffffffffffffffffffffffffffffffffffff168160010160009054906101000a900473ffffffffffffffffffffffffffffffffffffffff1673ffffffffffffffffffffffffffffffffffffffff167f655a0cf9c8db81512be9a76dc1c5ae5380b8816ce6ad659cd61b715e2999d59a8584600201548660405161067f93929190611524565b60405180910390a35060016000819055505050565b60036020528060005260406000206000915090508060000154908060010160009054906101000a900473ffffffffffffffffffffffffffffffffffffffff16908060020154908060030154908060040154908060050160009054906101000a900473ffffffffffffffffffffffffffffffffffffffff16908060050160149054906101000a900460ff16905087565b60026000541415610769576040517f08c379a0000000000000000000000000000000000000000000000000000000008152600401610760906112fb565b60405180910390fd5b6002600081905550600015156003600083815260200190815260200160002060050160149054906101000a900460ff161515146107db576040517f08c379a00000000000000000000000000000000000000000000000000000000081526004016107d290611452565b60405180910390fd5b6000811180156107ed57506002548111155b61082c576040517f08c379a0000000000000000000000000000000000000000000000000000000008152600401610823906115a7565b60405180910390fd5b3373ffffffffffffffffffffffffffffffffffffffff166003600083815260200190815260200160002060050160009054906101000a900473ffffffffffffffffffffffffffffffffffffffff1673ffffffffffffffffffffffffffffffffffffffff1614156108d1576040517f08c379a00000000000000000000000000000000000000000000000000000000081526004016108c890611613565b60405180910390fd5b60006108dc826101ef565b9050600060036000848152602001908152602001600020905034821115610938576040517f08c379a000000000000000000000000000000000000000000000000000000000815260040161092f9061167f565b60405180910390fd5b8060050160009054906101000a900473ffffffffffffffffffffffffffffffffffffffff1673ffffffffffffffffffffffffffffffffffffffff166108fc82600301549081150290604051600060405180830381858888f193505050501580156109a6573d6000803e3d6000fd5b50600160009054906101000a900473ffffffffffffffffffffffffffffffffffffffff1673ffffffffffffffffffffffffffffffffffffffff166108fc8260030154846109f3919061169f565b9081150290604051600060405180830381858888f19350505050158015610a1e573d6000803e3d6000fd5b508060010160009054906101000a900473ffffffffffffffffffffffffffffffffffffffff1673ffffffffffffffffffffffffffffffffffffffff166323b872dd303384600201546040518463ffffffff1660e01b8152600401610a84939291906114ed565b600060405180830381600087803b158015610a9e57600080fd5b505af1158015610ab2573d6000803e3d6000fd5b5050505060018160050160146101000a81548160ff021916908315150217905550806004015481600301819055503373ffffffffffffffffffffffffffffffffffffffff168160050160009054906101000a900473ffffffffffffffffffffffffffffffffffffffff1673ffffffffffffffffffffffffffffffffffffffff168260010160009054906101000a900473ffffffffffffffffffffffffffffffffffffffff1673ffffffffffffffffffffffffffffffffffffffff167f8b4c9c8a607d67b321582dd8461041b1dc2ceeca70c8b7f37f8e02095cf2e76d8685600201548660030154604051610ba893929190611524565b60405180910390a45050600160008190555050565b60026000541415610c03576040517f08c379a0000000000000000000000000000000000000000000000000000000008152600401610bfa906112fb565b60405180910390fd5b600260008190555060008111610c4e576040517f08c379a0000000000000000000000000000000000000000000000000000000008152600401610c45906114be565b60405180910390fd5b60026000815480929190610c61906116d3565b91905055508273ffffffffffffffffffffffffffffffffffffffff166323b872dd3330856040518463ffffffff1660e01b8152600401610ca3939291906114ed565b600060405180830381600087803b158015610cbd57600080fd5b505af1158015610cd1573d6000803e3d6000fd5b5050505060008190506040518060e0016040528060025481526020018573ffffffffffffffffffffffffffffffffffffffff1681526020018481526020018381526020018281526020013373ffffffffffffffffffffffffffffffffffffffff168152602001600015158152506003600060025481526020019081526020016000206000820151816000015560208201518160010160006101000a81548173ffffffffffffffffffffffffffffffffffffffff021916908373ffffffffffffffffffffffffffffffffffffffff16021790555060408201518160020155606082015181600301556080820151816004015560a08201518160050160006101000a81548173ffffffffffffffffffffffffffffffffffffffff021916908373ffffffffffffffffffffffffffffffffffffffff16021790555060c08201518160050160146101000a81548160ff0219169083151502179055509050503373ffffffffffffffffffffffffffffffffffffffff168473ffffffffffffffffffffffffffffffffffffffff167f655a0cf9c8db81512be9a76dc1c5ae5380b8816ce6ad659cd61b715e2999d59a6002548686604051610e8f93929190611524565b60405180910390a3506001600081905550505050565b600080fd5b6000819050919050565b610ebd81610eaa565b8114610ec857600080fd5b50565b600081359050610eda81610eb4565b92915050565b600060208284031215610ef657610ef5610ea5565b5b6000610f0484828501610ecb565b91505092915050565b610f1681610eaa565b82525050565b6000602082019050610f316000830184610f0d565b92915050565b600073ffffffffffffffffffffffffffffffffffffffff82169050919050565b6000610f6282610f37565b9050919050565b610f7281610f57565b82525050565b6000602082019050610f8d6000830184610f69565b92915050565b60008060408385031215610faa57610fa9610ea5565b5b6000610fb885828601610ecb565b9250506020610fc985828601610ecb565b9150509250929050565b6000819050919050565b6000610ff8610ff3610fee84610f37565b610fd3565b610f37565b9050919050565b600061100a82610fdd565b9050919050565b600061101c82610fff565b9050919050565b61102c81611011565b82525050565b60008115159050919050565b61104781611032565b82525050565b600060e082019050611062600083018a610f0d565b61106f6020830189611023565b61107c6040830188610f0d565b6110896060830187610f0d565b6110966080830186610f0d565b6110a360a0830185610f69565b6110b060c083018461103e565b98975050505050505050565b60006110c782610f37565b9050919050565b60006110d9826110bc565b9050919050565b6110e9816110ce565b81146110f457600080fd5b50565b600081359050611106816110e0565b92915050565b60008060006060848603121561112557611124610ea5565b5b6000611133868287016110f7565b935050602061114486828701610ecb565b925050604061115586828701610ecb565b9150509250925092565b7f4e487b7100000000000000000000000000000000000000000000000000000000600052601160045260246000fd5b600061119982610eaa565b91506111a483610eaa565b9250827fffffffffffffffffffffffffffffffffffffffffffffffffffffffffffffffff038211156111d9576111d861115f565b5b828201905092915050565b60006111ef82610eaa565b91506111fa83610eaa565b9250817fffffffffffffffffffffffffffffffffffffffffffffffffffffffffffffffff04831182151516156112335761123261115f565b5b828202905092915050565b7f4e487b7100000000000000000000000000000000000000000000000000000000600052601260045260246000fd5b600061127882610eaa565b915061128383610eaa565b9250826112935761129261123e565b5b828204905092915050565b600082825260208201905092915050565b7f5265656e7472616e637947756172643a207265656e7472616e742063616c6c00600082015250565b60006112e5601f8361129e565b91506112f0826112af565b602082019050919050565b60006020820190508181036000830152611314816112d8565b9050919050565b611324816110bc565b811461132f57600080fd5b50565b6000815190506113418161131b565b92915050565b60006020828403121561135d5761135c610ea5565b5b600061136b84828501611332565b91505092915050565b7f596f75206d757374206f776e2074686520746f6b656e20746f206c697374206960008201527f7400000000000000000000000000000000000000000000000000000000000000602082015250565b60006113d060218361129e565b91506113db82611374565b604082019050919050565b600060208201905081810360008301526113ff816113c3565b9050919050565b7f4974656d20697320616c726561647920736f6c64000000000000000000000000600082015250565b600061143c60148361129e565b915061144782611406565b602082019050919050565b6000602082019050818103600083015261146b8161142f565b9050919050565b7f5072696365206d7573742062652067726561746572207468616e203000000000600082015250565b60006114a8601c8361129e565b91506114b382611472565b602082019050919050565b600060208201905081810360008301526114d78161149b565b9050919050565b6114e7816110bc565b82525050565b600060608201905061150260008301866114de565b61150f60208301856114de565b61151c6040830184610f0d565b949350505050565b60006060820190506115396000830186610f0d565b6115466020830185610f0d565b6115536040830184610f0d565b949350505050565b7f4974656d20646f6573206e6f7420657869737400000000000000000000000000600082015250565b600061159160138361129e565b915061159c8261155b565b602082019050919050565b600060208201905081810360008301526115c081611584565b9050919050565b7f596f752063616e6e6f742062757920796f7572206f776e206974656d00000000600082015250565b60006115fd601c8361129e565b9150611608826115c7565b602082019050919050565b6000602082019050818103600083015261162c816115f0565b9050919050565b7f4e6f7420656e6f756768206d6f6e657920746f20627579206974656d00000000600082015250565b6000611669601c8361129e565b915061167482611633565b602082019050919050565b600060208201905081810360008301526116988161165c565b9050919050565b60006116aa82610eaa565b91506116b583610eaa565b9250828210156116c8576116c761115f565b5b828203905092915050565b60006116de82610eaa565b91507fffffffffffffffffffffffffffffffffffffffffffffffffffffffffffffffff8214156117115761171061115f565b5b60018201905091905056fea2646970667358221220a52a8f9b19b90a4764a41a63e509c0165f283555350bfb0aebbe7c3071df887864736f6c63430008090033",
  "linkReferences": {},
  "deployedLinkReferences": {}
}