{
  "_format": "hh-sol-artifact-1",
  "contractName": "NFT",
  "sourceName": "contracts/NFT.sol",
  "abi": [
    {
      "inputs": [],
      "stateMutability": "nonpayable",
      "type": "constructor"
    },
    {
      "anonymous": false,
      "inputs": [
        {
          "indexed": true,
          "internalType": "address",
          "name": "owner",
          "type": "address"
        },
        {
          "indexed": true,
          "internalType": "address",
          "name": "approved",
          "type": "address"
        },
        {
          "indexed": true,
          "internalType": "uint256",
          "name": "tokenId",
          "type": "uint256"
        }
      ],
      "name": "Approval",
      "type": "event"
    },
    {
      "anonymous": false,
      "inputs": [
        {
          "indexed": true,
          "internalType": "address",
          "name": "owner",
          "type": "address"
        },
        {
          "indexed": true,
          "internalType": "address",
          "name": "operator",
          "type": "address"
        },
        {
          "indexed": false,
          "internalType": "bool",
          "name": "approved",
          "type": "bool"
        }
      ],
      "name": "ApprovalForAll",
      "type": "event"
    },
    {
      "anonymous": false,
      "inputs": [
        {
          "indexed": true,
          "internalType": "address",
          "name": "previousOwner",
          "type": "address"
        },
        {
          "indexed": true,
          "internalType": "address",
          "name": "newOwner",
          "type": "address"
        }
      ],
      "name": "OwnershipTransferred",
      "type": "event"
    },
    {
      "anonymous": false,
      "inputs": [
        {
          "indexed": true,
          "internalType": "address",
          "name": "from",
          "type": "address"
        },
        {
          "indexed": true,
          "internalType": "address",
          "name": "to",
          "type": "address"
        },
        {
          "indexed": true,
          "internalType": "uint256",
          "name": "tokenId",
          "type": "uint256"
        }
      ],
      "name": "Transfer",
      "type": "event"
    },
    {
      "inputs": [
        {
          "internalType": "address",
          "name": "to",
          "type": "address"
        },
        {
          "internalType": "uint256",
          "name": "tokenId",
          "type": "uint256"
        }
      ],
      "name": "approve",
      "outputs": [],
      "stateMutability": "nonpayable",
      "type": "function"
    },
    {
      "inputs": [
        {
          "internalType": "address",
          "name": "owner",
          "type": "address"
        }
      ],
      "name": "balanceOf",
      "outputs": [
        {
          "internalType": "uint256",
          "name": "",
          "type": "uint256"
        }
      ],
      "stateMutability": "view",
      "type": "function"
    },
    {
      "inputs": [
        {
          "internalType": "uint256",
          "name": "tokenId",
          "type": "uint256"
        }
      ],
      "name": "getApproved",
      "outputs": [
        {
          "internalType": "address",
          "name": "",
          "type": "address"
        }
      ],
      "stateMutability": "view",
      "type": "function"
    },
    {
      "inputs": [
        {
          "internalType": "uint256",
          "name": "_tokenId",
          "type": "uint256"
        }
      ],
      "name": "getOwner",
      "outputs": [
        {
          "internalType": "address",
          "name": "",
          "type": "address"
        }
      ],
      "stateMutability": "view",
      "type": "function"
    },
    {
      "inputs": [
        {
          "internalType": "address",
          "name": "owner",
          "type": "address"
        },
        {
          "internalType": "address",
          "name": "operator",
          "type": "address"
        }
      ],
      "name": "isApprovedForAll",
      "outputs": [
        {
          "internalType": "bool",
          "name": "",
          "type": "bool"
        }
      ],
      "stateMutability": "view",
      "type": "function"
    },
    {
      "inputs": [
        {
          "internalType": "address",
          "name": "recipient",
          "type": "address"
        },
        {
          "internalType": "string",
          "name": "_tokenURI",
          "type": "string"
        }
      ],
      "name": "mint",
      "outputs": [
        {
          "internalType": "uint256",
          "name": "",
          "type": "uint256"
        }
      ],
      "stateMutability": "nonpayable",
      "type": "function"
    },
    {
      "inputs": [],
      "name": "name",
      "outputs": [
        {
          "internalType": "string",
          "name": "",
          "type": "string"
        }
      ],
      "stateMutability": "view",
      "type": "function"
    },
    {
      "inputs": [],
      "name": "owner",
      "outputs": [
        {
          "internalType": "address",
          "name": "",
          "type": "address"
        }
      ],
      "stateMutability": "view",
      "type": "function"
    },
    {
      "inputs": [
        {
          "internalType": "uint256",
          "name": "tokenId",
          "type": "uint256"
        }
      ],
      "name": "ownerOf",
      "outputs": [
        {
          "internalType": "address",
          "name": "",
          "type": "address"
        }
      ],
      "stateMutability": "view",
      "type": "function"
    },
    {
      "inputs": [],
      "name": "renounceOwnership",
      "outputs": [],
      "stateMutability": "nonpayable",
      "type": "function"
    },
    {
      "inputs": [
        {
          "internalType": "address",
          "name": "from",
          "type": "address"
        },
        {
          "internalType": "address",
          "name": "to",
          "type": "address"
        },
        {
          "internalType": "uint256",
          "name": "tokenId",
          "type": "uint256"
        }
      ],
      "name": "safeTransferFrom",
      "outputs": [],
      "stateMutability": "nonpayable",
      "type": "function"
    },
    {
      "inputs": [
        {
          "internalType": "address",
          "name": "from",
          "type": "address"
        },
        {
          "internalType": "address",
          "name": "to",
          "type": "address"
        },
        {
          "internalType": "uint256",
          "name": "tokenId",
          "type": "uint256"
        },
        {
          "internalType": "bytes",
          "name": "data",
          "type": "bytes"
        }
      ],
      "name": "safeTransferFrom",
      "outputs": [],
      "stateMutability": "nonpayable",
      "type": "function"
    },
    {
      "inputs": [
        {
          "internalType": "address",
          "name": "operator",
          "type": "address"
        },
        {
          "internalType": "bool",
          "name": "approved",
          "type": "bool"
        }
      ],
      "name": "setApprovalForAll",
      "outputs": [],
      "stateMutability": "nonpayable",
      "type": "function"
    },
    {
      "inputs": [
        {
          "internalType": "bytes4",
          "name": "interfaceId",
          "type": "bytes4"
        }
      ],
      "name": "supportsInterface",
      "outputs": [
        {
          "internalType": "bool",
          "name": "",
          "type": "bool"
        }
      ],
      "stateMutability": "view",
      "type": "function"
    },
    {
      "inputs": [],
      "name": "symbol",
      "outputs": [
        {
          "internalType": "string",
          "name": "",
          "type": "string"
        }
      ],
      "stateMutability": "view",
      "type": "function"
    },
    {
      "inputs": [],
      "name": "tokenCount",
      "outputs": [
        {
          "internalType": "uint256",
          "name": "_value",
          "type": "uint256"
        }
      ],
      "stateMutability": "view",
      "type": "function"
    },
    {
      "inputs": [
        {
          "internalType": "uint256",
          "name": "tokenId",
          "type": "uint256"
        }
      ],
      "name": "tokenURI",
      "outputs": [
        {
          "internalType": "string",
          "name": "",
          "type": "string"
        }
      ],
      "stateMutability": "view",
      "type": "function"
    },
    {
      "inputs": [
        {
          "internalType": "address",
          "name": "from",
          "type": "address"
        },
        {
          "internalType": "address",
          "name": "to",
          "type": "address"
        },
        {
          "internalType": "uint256",
          "name": "tokenId",
          "type": "uint256"
        }
      ],
      "name": "transferFrom",
      "outputs": [],
      "stateMutability": "nonpayable",
      "type": "function"
    },
    {
      "inputs": [
        {
          "internalType": "address",
          "name": "newOwner",
          "type": "address"
        }
      ],
      "name": "transferOwnership",
      "outputs": [],
      "stateMutability": "nonpayable",
      "type": "function"
    }
  ],
  "bytecode": "0x60806040523480156200001157600080fd5b506040518060400160405280600881526020017f44417070204e46540000000000000000000000000000000000000000000000008152506040518060400160405280600481526020017f4441505000000000000000000000000000000000000000000000000000000000815250816000908051906020019062000096929190620001a6565b508060019080519060200190620000af929190620001a6565b505050620000d2620000c6620000d860201b60201c565b620000e060201b60201c565b620002bb565b600033905090565b6000600760009054906101000a900473ffffffffffffffffffffffffffffffffffffffff16905081600760006101000a81548173ffffffffffffffffffffffffffffffffffffffff021916908373ffffffffffffffffffffffffffffffffffffffff1602179055508173ffffffffffffffffffffffffffffffffffffffff168173ffffffffffffffffffffffffffffffffffffffff167f8be0079c531659141344cd1fd0a4f28419497f9722a3daafe3b4186f6b6457e060405160405180910390a35050565b828054620001b49062000285565b90600052602060002090601f016020900481019282620001d8576000855562000224565b82601f10620001f357805160ff191683800117855562000224565b8280016001018555821562000224579182015b828111156200022357825182559160200191906001019062000206565b5b50905062000233919062000237565b5090565b5b808211156200025257600081600090555060010162000238565b5090565b7f4e487b7100000000000000000000000000000000000000000000000000000000600052602260045260246000fd5b600060028204905060018216806200029e57607f821691505b60208210811415620002b557620002b462000256565b5b50919050565b612c9b80620002cb6000396000f3fe608060405234801561001057600080fd5b50600436106101215760003560e01c80638da5cb5b116100ad578063c41a360a11610071578063c41a360a146102f4578063c87b56dd14610324578063d0def52114610354578063e985e9c514610384578063f2fde38b146103b457610121565b80638da5cb5b1461026257806395d89b41146102805780639f181b5e1461029e578063a22cb465146102bc578063b88d4fde146102d857610121565b806323b872dd116100f457806323b872dd146101c057806342842e0e146101dc5780636352211e146101f857806370a0823114610228578063715018a61461025857610121565b806301ffc9a71461012657806306fdde0314610156578063081812fc14610174578063095ea7b3146101a4575b600080fd5b610140600480360381019061013b9190611b6d565b6103d0565b60405161014d9190611bb5565b60405180910390f35b61015e6104b2565b60405161016b9190611c69565b60405180910390f35b61018e60048036038101906101899190611cc1565b610544565b60405161019b9190611d2f565b60405180910390f35b6101be60048036038101906101b99190611d76565b61058a565b005b6101da60048036038101906101d59190611db6565b6106a2565b005b6101f660048036038101906101f19190611db6565b610702565b005b610212600480360381019061020d9190611cc1565b610722565b60405161021f9190611d2f565b60405180910390f35b610242600480360381019061023d9190611e09565b6107d4565b60405161024f9190611e45565b60405180910390f35b61026061088c565b005b61026a6108a0565b6040516102779190611d2f565b60405180910390f35b6102886108ca565b6040516102959190611c69565b60405180910390f35b6102a661095c565b6040516102b39190611e45565b60405180910390f35b6102d660048036038101906102d19190611e8c565b610968565b005b6102f260048036038101906102ed9190612001565b61097e565b005b61030e60048036038101906103099190611cc1565b6109e0565b60405161031b9190611d2f565b60405180910390f35b61033e60048036038101906103399190611cc1565b6109f2565b60405161034b9190611c69565b60405180910390f35b61036e60048036038101906103699190612125565b610b05565b60405161037b9190611e45565b60405180910390f35b61039e60048036038101906103999190612181565b610b45565b6040516103ab9190611bb5565b60405180910390f35b6103ce60048036038101906103c99190611e09565b610bd9565b005b60007f80ac58cd000000000000000000000000000000000000000000000000000000007bffffffffffffffffffffffffffffffffffffffffffffffffffffffff1916827bffffffffffffffffffffffffffffffffffffffffffffffffffffffff1916148061049b57507f5b5e139f000000000000000000000000000000000000000000000000000000007bffffffffffffffffffffffffffffffffffffffffffffffffffffffff1916827bffffffffffffffffffffffffffffffffffffffffffffffffffffffff1916145b806104ab57506104aa82610c5d565b5b9050919050565b6060600080546104c1906121f0565b80601f01602080910402602001604051908101604052809291908181526020018280546104ed906121f0565b801561053a5780601f1061050f5761010080835404028352916020019161053a565b820191906000526020600020905b81548152906001019060200180831161051d57829003601f168201915b5050505050905090565b600061054f82610cc7565b6004600083815260200190815260200160002060009054906101000a900473ffffffffffffffffffffffffffffffffffffffff169050919050565b600061059582610722565b90508073ffffffffffffffffffffffffffffffffffffffff168373ffffffffffffffffffffffffffffffffffffffff161415610606576040517f08c379a00000000000000000000000000000000000000000000000000000000081526004016105fd90612294565b60405180910390fd5b8073ffffffffffffffffffffffffffffffffffffffff16610625610d12565b73ffffffffffffffffffffffffffffffffffffffff16148061065457506106538161064e610d12565b610b45565b5b610693576040517f08c379a000000000000000000000000000000000000000000000000000000000815260040161068a90612326565b60405180910390fd5b61069d8383610d1a565b505050565b6106b36106ad610d12565b82610dd3565b6106f2576040517f08c379a00000000000000000000000000000000000000000000000000000000081526004016106e9906123b8565b60405180910390fd5b6106fd838383610e68565b505050565b61071d8383836040518060200160405280600081525061097e565b505050565b6000806002600084815260200190815260200160002060009054906101000a900473ffffffffffffffffffffffffffffffffffffffff169050600073ffffffffffffffffffffffffffffffffffffffff168173ffffffffffffffffffffffffffffffffffffffff1614156107cb576040517f08c379a00000000000000000000000000000000000000000000000000000000081526004016107c290612424565b60405180910390fd5b80915050919050565b60008073ffffffffffffffffffffffffffffffffffffffff168273ffffffffffffffffffffffffffffffffffffffff161415610845576040517f08c379a000000000000000000000000000000000000000000000000000000000815260040161083c906124b6565b60405180910390fd5b600360008373ffffffffffffffffffffffffffffffffffffffff1673ffffffffffffffffffffffffffffffffffffffff168152602001908152602001600020549050919050565b6108946110cf565b61089e600061114d565b565b6000600760009054906101000a900473ffffffffffffffffffffffffffffffffffffffff16905090565b6060600180546108d9906121f0565b80601f0160208091040260200160405190810160405280929190818152602001828054610905906121f0565b80156109525780601f1061092757610100808354040283529160200191610952565b820191906000526020600020905b81548152906001019060200180831161093557829003601f168201915b5050505050905090565b60088060000154905081565b61097a610973610d12565b8383611213565b5050565b61098f610989610d12565b83610dd3565b6109ce576040517f08c379a00000000000000000000000000000000000000000000000000000000081526004016109c5906123b8565b60405180910390fd5b6109da84848484611380565b50505050565b60006109eb82610722565b9050919050565b60606109fd82610cc7565b6000600660008481526020019081526020016000208054610a1d906121f0565b80601f0160208091040260200160405190810160405280929190818152602001828054610a49906121f0565b8015610a965780601f10610a6b57610100808354040283529160200191610a96565b820191906000526020600020905b815481529060010190602001808311610a7957829003601f168201915b505050505090506000610aa76113dc565b9050600081511415610abd578192505050610b00565b600082511115610af2578082604051602001610ada929190612512565b60405160208183030381529060405292505050610b00565b610afb846113f3565b925050505b919050565b6000610b0f6110cf565b610b19600861145b565b6000610b256008611471565b9050610b31848261147f565b610b3b8184611659565b8091505092915050565b6000600560008473ffffffffffffffffffffffffffffffffffffffff1673ffffffffffffffffffffffffffffffffffffffff16815260200190815260200160002060008373ffffffffffffffffffffffffffffffffffffffff1673ffffffffffffffffffffffffffffffffffffffff16815260200190815260200160002060009054906101000a900460ff16905092915050565b610be16110cf565b600073ffffffffffffffffffffffffffffffffffffffff168173ffffffffffffffffffffffffffffffffffffffff161415610c51576040517f08c379a0000000000000000000000000000000000000000000000000000000008152600401610c48906125a8565b60405180910390fd5b610c5a8161114d565b50565b60007f01ffc9a7000000000000000000000000000000000000000000000000000000007bffffffffffffffffffffffffffffffffffffffffffffffffffffffff1916827bffffffffffffffffffffffffffffffffffffffffffffffffffffffff1916149050919050565b610cd0816116cd565b610d0f576040517f08c379a0000000000000000000000000000000000000000000000000000000008152600401610d0690612424565b60405180910390fd5b50565b600033905090565b816004600083815260200190815260200160002060006101000a81548173ffffffffffffffffffffffffffffffffffffffff021916908373ffffffffffffffffffffffffffffffffffffffff160217905550808273ffffffffffffffffffffffffffffffffffffffff16610d8d83610722565b73ffffffffffffffffffffffffffffffffffffffff167f8c5be1e5ebec7d5bd14f71427d1e84f3dd0314c0f7b2291e5b200ac8c7c3b92560405160405180910390a45050565b600080610ddf83610722565b90508073ffffffffffffffffffffffffffffffffffffffff168473ffffffffffffffffffffffffffffffffffffffff161480610e215750610e208185610b45565b5b80610e5f57508373ffffffffffffffffffffffffffffffffffffffff16610e4784610544565b73ffffffffffffffffffffffffffffffffffffffff16145b91505092915050565b8273ffffffffffffffffffffffffffffffffffffffff16610e8882610722565b73ffffffffffffffffffffffffffffffffffffffff1614610ede576040517f08c379a0000000000000000000000000000000000000000000000000000000008152600401610ed59061263a565b60405180910390fd5b600073ffffffffffffffffffffffffffffffffffffffff168273ffffffffffffffffffffffffffffffffffffffff161415610f4e576040517f08c379a0000000000000000000000000000000000000000000000000000000008152600401610f45906126cc565b60405180910390fd5b610f59838383611739565b610f64600082610d1a565b6001600360008573ffffffffffffffffffffffffffffffffffffffff1673ffffffffffffffffffffffffffffffffffffffff1681526020019081526020016000206000828254610fb4919061271b565b925050819055506001600360008473ffffffffffffffffffffffffffffffffffffffff1673ffffffffffffffffffffffffffffffffffffffff168152602001908152602001600020600082825461100b919061274f565b92505081905550816002600083815260200190815260200160002060006101000a81548173ffffffffffffffffffffffffffffffffffffffff021916908373ffffffffffffffffffffffffffffffffffffffff160217905550808273ffffffffffffffffffffffffffffffffffffffff168473ffffffffffffffffffffffffffffffffffffffff167fddf252ad1be2c89b69c2b068fc378daa952ba7f163c4a11628f55a4df523b3ef60405160405180910390a46110ca83838361173e565b505050565b6110d7610d12565b73ffffffffffffffffffffffffffffffffffffffff166110f56108a0565b73ffffffffffffffffffffffffffffffffffffffff161461114b576040517f08c379a0000000000000000000000000000000000000000000000000000000008152600401611142906127f1565b60405180910390fd5b565b6000600760009054906101000a900473ffffffffffffffffffffffffffffffffffffffff16905081600760006101000a81548173ffffffffffffffffffffffffffffffffffffffff021916908373ffffffffffffffffffffffffffffffffffffffff1602179055508173ffffffffffffffffffffffffffffffffffffffff168173ffffffffffffffffffffffffffffffffffffffff167f8be0079c531659141344cd1fd0a4f28419497f9722a3daafe3b4186f6b6457e060405160405180910390a35050565b8173ffffffffffffffffffffffffffffffffffffffff168373ffffffffffffffffffffffffffffffffffffffff161415611282576040517f08c379a00000000000000000000000000000000000000000000000000000000081526004016112799061285d565b60405180910390fd5b80600560008573ffffffffffffffffffffffffffffffffffffffff1673ffffffffffffffffffffffffffffffffffffffff16815260200190815260200160002060008473ffffffffffffffffffffffffffffffffffffffff1673ffffffffffffffffffffffffffffffffffffffff16815260200190815260200160002060006101000a81548160ff0219169083151502179055508173ffffffffffffffffffffffffffffffffffffffff168373ffffffffffffffffffffffffffffffffffffffff167f17307eab39ab6107e8899845ad3d59bd9653f200f220920489ca2b5937696c31836040516113739190611bb5565b60405180910390a3505050565b61138b848484610e68565b61139784848484611743565b6113d6576040517f08c379a00000000000000000000000000000000000000000000000000000000081526004016113cd906128ef565b60405180910390fd5b50505050565b606060405180602001604052806000815250905090565b60606113fe82610cc7565b60006114086113dc565b905060008151116114285760405180602001604052806000815250611453565b80611432846118da565b604051602001611443929190612512565b6040516020818303038152906040525b915050919050565b6001816000016000828254019250508190555050565b600081600001549050919050565b600073ffffffffffffffffffffffffffffffffffffffff168273ffffffffffffffffffffffffffffffffffffffff1614156114ef576040517f08c379a00000000000000000000000000000000000000000000000000000000081526004016114e69061295b565b60405180910390fd5b6114f8816116cd565b15611538576040517f08c379a000000000000000000000000000000000000000000000000000000000815260040161152f906129c7565b60405180910390fd5b61154460008383611739565b6001600360008473ffffffffffffffffffffffffffffffffffffffff1673ffffffffffffffffffffffffffffffffffffffff1681526020019081526020016000206000828254611594919061274f565b92505081905550816002600083815260200190815260200160002060006101000a81548173ffffffffffffffffffffffffffffffffffffffff021916908373ffffffffffffffffffffffffffffffffffffffff160217905550808273ffffffffffffffffffffffffffffffffffffffff16600073ffffffffffffffffffffffffffffffffffffffff167fddf252ad1be2c89b69c2b068fc378daa952ba7f163c4a11628f55a4df523b3ef60405160405180910390a46116556000838361173e565b5050565b611662826116cd565b6116a1576040517f08c379a000000000000000000000000000000000000000000000000000000000815260040161169890612a59565b60405180910390fd5b806006600084815260200190815260200160002090805190602001906116c8929190611a5e565b505050565b60008073ffffffffffffffffffffffffffffffffffffffff166002600084815260200190815260200160002060009054906101000a900473ffffffffffffffffffffffffffffffffffffffff1673ffffffffffffffffffffffffffffffffffffffff1614159050919050565b505050565b505050565b60006117648473ffffffffffffffffffffffffffffffffffffffff16611a3b565b156118cd578373ffffffffffffffffffffffffffffffffffffffff1663150b7a0261178d610d12565b8786866040518563ffffffff1660e01b81526004016117af9493929190612ace565b602060405180830381600087803b1580156117c957600080fd5b505af19250505080156117fa57506040513d601f19601f820116820180604052508101906117f79190612b2f565b60015b61187d573d806000811461182a576040519150601f19603f3d011682016040523d82523d6000602084013e61182f565b606091505b50600081511415611875576040517f08c379a000000000000000000000000000000000000000000000000000000000815260040161186c906128ef565b60405180910390fd5b805181602001fd5b63150b7a0260e01b7bffffffffffffffffffffffffffffffffffffffffffffffffffffffff1916817bffffffffffffffffffffffffffffffffffffffffffffffffffffffff1916149150506118d2565b600190505b949350505050565b60606000821415611922576040518060400160405280600181526020017f30000000000000000000000000000000000000000000000000000000000000008152509050611a36565b600082905060005b6000821461195457808061193d90612b5c565b915050600a8261194d9190612bd4565b915061192a565b60008167ffffffffffffffff8111156119705761196f611ed6565b5b6040519080825280601f01601f1916602001820160405280156119a25781602001600182028036833780820191505090505b5090505b60008514611a2f576001826119bb919061271b565b9150600a856119ca9190612c05565b60306119d6919061274f565b60f81b8183815181106119ec576119eb612c36565b5b60200101907effffffffffffffffffffffffffffffffffffffffffffffffffffffffffffff1916908160001a905350600a85611a289190612bd4565b94506119a6565b8093505050505b919050565b6000808273ffffffffffffffffffffffffffffffffffffffff163b119050919050565b828054611a6a906121f0565b90600052602060002090601f016020900481019282611a8c5760008555611ad3565b82601f10611aa557805160ff1916838001178555611ad3565b82800160010185558215611ad3579182015b82811115611ad2578251825591602001919060010190611ab7565b5b509050611ae09190611ae4565b5090565b5b80821115611afd576000816000905550600101611ae5565b5090565b6000604051905090565b600080fd5b600080fd5b60007fffffffff0000000000000000000000000000000000000000000000000000000082169050919050565b611b4a81611b15565b8114611b5557600080fd5b50565b600081359050611b6781611b41565b92915050565b600060208284031215611b8357611b82611b0b565b5b6000611b9184828501611b58565b91505092915050565b60008115159050919050565b611baf81611b9a565b82525050565b6000602082019050611bca6000830184611ba6565b92915050565b600081519050919050565b600082825260208201905092915050565b60005b83811015611c0a578082015181840152602081019050611bef565b83811115611c19576000848401525b50505050565b6000601f19601f8301169050919050565b6000611c3b82611bd0565b611c458185611bdb565b9350611c55818560208601611bec565b611c5e81611c1f565b840191505092915050565b60006020820190508181036000830152611c838184611c30565b905092915050565b6000819050919050565b611c9e81611c8b565b8114611ca957600080fd5b50565b600081359050611cbb81611c95565b92915050565b600060208284031215611cd757611cd6611b0b565b5b6000611ce584828501611cac565b91505092915050565b600073ffffffffffffffffffffffffffffffffffffffff82169050919050565b6000611d1982611cee565b9050919050565b611d2981611d0e565b82525050565b6000602082019050611d446000830184611d20565b92915050565b611d5381611d0e565b8114611d5e57600080fd5b50565b600081359050611d7081611d4a565b92915050565b60008060408385031215611d8d57611d8c611b0b565b5b6000611d9b85828601611d61565b9250506020611dac85828601611cac565b9150509250929050565b600080600060608486031215611dcf57611dce611b0b565b5b6000611ddd86828701611d61565b9350506020611dee86828701611d61565b9250506040611dff86828701611cac565b9150509250925092565b600060208284031215611e1f57611e1e611b0b565b5b6000611e2d84828501611d61565b91505092915050565b611e3f81611c8b565b82525050565b6000602082019050611e5a6000830184611e36565b92915050565b611e6981611b9a565b8114611e7457600080fd5b50565b600081359050611e8681611e60565b92915050565b60008060408385031215611ea357611ea2611b0b565b5b6000611eb185828601611d61565b9250506020611ec285828601611e77565b9150509250929050565b600080fd5b600080fd5b7f4e487b7100000000000000000000000000000000000000000000000000000000600052604160045260246000fd5b611f0e82611c1f565b810181811067ffffffffffffffff82111715611f2d57611f2c611ed6565b5b80604052505050565b6000611f40611b01565b9050611f4c8282611f05565b919050565b600067ffffffffffffffff821115611f6c57611f6b611ed6565b5b611f7582611c1f565b9050602081019050919050565b82818337600083830152505050565b6000611fa4611f9f84611f51565b611f36565b905082815260208101848484011115611fc057611fbf611ed1565b5b611fcb848285611f82565b509392505050565b600082601f830112611fe857611fe7611ecc565b5b8135611ff8848260208601611f91565b91505092915050565b6000806000806080858703121561201b5761201a611b0b565b5b600061202987828801611d61565b945050602061203a87828801611d61565b935050604061204b87828801611cac565b925050606085013567ffffffffffffffff81111561206c5761206b611b10565b5b61207887828801611fd3565b91505092959194509250565b600067ffffffffffffffff82111561209f5761209e611ed6565b5b6120a882611c1f565b9050602081019050919050565b60006120c86120c384612084565b611f36565b9050828152602081018484840111156120e4576120e3611ed1565b5b6120ef848285611f82565b509392505050565b600082601f83011261210c5761210b611ecc565b5b813561211c8482602086016120b5565b91505092915050565b6000806040838503121561213c5761213b611b0b565b5b600061214a85828601611d61565b925050602083013567ffffffffffffffff81111561216b5761216a611b10565b5b612177858286016120f7565b9150509250929050565b6000806040838503121561219857612197611b0b565b5b60006121a685828601611d61565b92505060206121b785828601611d61565b9150509250929050565b7f4e487b7100000000000000000000000000000000000000000000000000000000600052602260045260246000fd5b6000600282049050600182168061220857607f821691505b6020821081141561221c5761221b6121c1565b5b50919050565b7f4552433732313a20617070726f76616c20746f2063757272656e74206f776e6560008201527f7200000000000000000000000000000000000000000000000000000000000000602082015250565b600061227e602183611bdb565b915061228982612222565b604082019050919050565b600060208201905081810360008301526122ad81612271565b9050919050565b7f4552433732313a20617070726f76652063616c6c6572206973206e6f7420746f60008201527f6b656e206f776e6572206e6f7220617070726f76656420666f7220616c6c0000602082015250565b6000612310603e83611bdb565b915061231b826122b4565b604082019050919050565b6000602082019050818103600083015261233f81612303565b9050919050565b7f4552433732313a2063616c6c6572206973206e6f7420746f6b656e206f776e6560008201527f72206e6f7220617070726f766564000000000000000000000000000000000000602082015250565b60006123a2602e83611bdb565b91506123ad82612346565b604082019050919050565b600060208201905081810360008301526123d181612395565b9050919050565b7f4552433732313a20696e76616c696420746f6b656e2049440000000000000000600082015250565b600061240e601883611bdb565b9150612419826123d8565b602082019050919050565b6000602082019050818103600083015261243d81612401565b9050919050565b7f4552433732313a2061646472657373207a65726f206973206e6f74206120766160008201527f6c6964206f776e65720000000000000000000000000000000000000000000000602082015250565b60006124a0602983611bdb565b91506124ab82612444565b604082019050919050565b600060208201905081810360008301526124cf81612493565b9050919050565b600081905092915050565b60006124ec82611bd0565b6124f681856124d6565b9350612506818560208601611bec565b80840191505092915050565b600061251e82856124e1565b915061252a82846124e1565b91508190509392505050565b7f4f776e61626c653a206e6577206f776e657220697320746865207a65726f206160008201527f6464726573730000000000000000000000000000000000000000000000000000602082015250565b6000612592602683611bdb565b915061259d82612536565b604082019050919050565b600060208201905081810360008301526125c181612585565b9050919050565b7f4552433732313a207472616e736665722066726f6d20696e636f72726563742060008201527f6f776e6572000000000000000000000000000000000000000000000000000000602082015250565b6000612624602583611bdb565b915061262f826125c8565b604082019050919050565b6000602082019050818103600083015261265381612617565b9050919050565b7f4552433732313a207472616e7366657220746f20746865207a65726f2061646460008201527f7265737300000000000000000000000000000000000000000000000000000000602082015250565b60006126b6602483611bdb565b91506126c18261265a565b604082019050919050565b600060208201905081810360008301526126e5816126a9565b9050919050565b7f4e487b7100000000000000000000000000000000000000000000000000000000600052601160045260246000fd5b600061272682611c8b565b915061273183611c8b565b925082821015612744576127436126ec565b5b828203905092915050565b600061275a82611c8b565b915061276583611c8b565b9250827fffffffffffffffffffffffffffffffffffffffffffffffffffffffffffffffff0382111561279a576127996126ec565b5b828201905092915050565b7f4f776e61626c653a2063616c6c6572206973206e6f7420746865206f776e6572600082015250565b60006127db602083611bdb565b91506127e6826127a5565b602082019050919050565b6000602082019050818103600083015261280a816127ce565b9050919050565b7f4552433732313a20617070726f766520746f2063616c6c657200000000000000600082015250565b6000612847601983611bdb565b915061285282612811565b602082019050919050565b600060208201905081810360008301526128768161283a565b9050919050565b7f4552433732313a207472616e7366657220746f206e6f6e20455243373231526560008201527f63656976657220696d706c656d656e7465720000000000000000000000000000602082015250565b60006128d9603283611bdb565b91506128e48261287d565b604082019050919050565b60006020820190508181036000830152612908816128cc565b9050919050565b7f4552433732313a206d696e7420746f20746865207a65726f2061646472657373600082015250565b6000612945602083611bdb565b91506129508261290f565b602082019050919050565b6000602082019050818103600083015261297481612938565b9050919050565b7f4552433732313a20746f6b656e20616c7265616479206d696e74656400000000600082015250565b60006129b1601c83611bdb565b91506129bc8261297b565b602082019050919050565b600060208201905081810360008301526129e0816129a4565b9050919050565b7f45524337323155524953746f726167653a2055524920736574206f66206e6f6e60008201527f6578697374656e7420746f6b656e000000000000000000000000000000000000602082015250565b6000612a43602e83611bdb565b9150612a4e826129e7565b604082019050919050565b60006020820190508181036000830152612a7281612a36565b9050919050565b600081519050919050565b600082825260208201905092915050565b6000612aa082612a79565b612aaa8185612a84565b9350612aba818560208601611bec565b612ac381611c1f565b840191505092915050565b6000608082019050612ae36000830187611d20565b612af06020830186611d20565b612afd6040830185611e36565b8181036060830152612b0f8184612a95565b905095945050505050565b600081519050612b2981611b41565b92915050565b600060208284031215612b4557612b44611b0b565b5b6000612b5384828501612b1a565b91505092915050565b6000612b6782611c8b565b91507fffffffffffffffffffffffffffffffffffffffffffffffffffffffffffffffff821415612b9a57612b996126ec565b5b600182019050919050565b7f4e487b7100000000000000000000000000000000000000000000000000000000600052601260045260246000fd5b6000612bdf82611c8b565b9150612bea83611c8b565b925082612bfa57612bf9612ba5565b5b828204905092915050565b6000612c1082611c8b565b9150612c1b83611c8b565b925082612c2b57612c2a612ba5565b5b828206905092915050565b7f4e487b7100000000000000000000000000000000000000000000000000000000600052603260045260246000fdfea264697066735822122004cc30a790fabe330511c82813f3172bbad68b142c8c161c1a023211dc972f6f64736f6c63430008090033",
  "linkReferences": {},
  "deployedLinkReferences": {}
}